{"abi":[{"type":"function","name":"addPerson","inputs":[{"name":"_name","type":"string","internalType":"string"},{"name":"_favoriteNumber","type":"uint256","internalType":"uint256"}],"outputs":[],"stateMutability":"nonpayable"},{"type":"function","name":"giveNameGetFavoriteNumber","inputs":[{"name":"","type":"string","internalType":"string"}],"outputs":[{"name":"","type":"uint256","internalType":"uint256"}],"stateMutability":"view"},{"type":"function","name":"listOfPeople","inputs":[{"name":"","type":"uint256","internalType":"uint256"}],"outputs":[{"name":"favoriteNumber","type":"uint256","internalType":"uint256"},{"name":"name","type":"string","internalType":"string"}],"stateMutability":"view"}],"bytecode":{"object":"0x6080604052348015600e575f5ffd5b5061050d8061001c5f395ff3fe608060405234801561000f575f5ffd5b506004361061003f575f3560e01c80632ebce6311461004357806343a5ed3b1461006d5780636f760f41146100a6575b5f5ffd5b610056610051366004610214565b6100bb565b60405161006492919061022b565b60405180910390f35b61009861007b366004610306565b805160208183018101805160018252928201919093012091525481565b604051908152602001610064565b6100b96100b4366004610340565b61016e565b005b5f81815481106100c9575f80fd5b5f91825260209091206002909102018054600182018054919350906100ed90610382565b80601f016020809104026020016040519081016040528092919081815260200182805461011990610382565b80156101645780601f1061013b57610100808354040283529160200191610164565b820191905f5260205f20905b81548152906001019060200180831161014757829003601f168201915b5050505050905082565b60408051808201909152818152602081018381525f8054600181018255908052825160029091027f290decd9548b62a8d60345a988386fc84ba6bc95484008f6362f93160ef3e5638101918255915190917f290decd9548b62a8d60345a988386fc84ba6bc95484008f6362f93160ef3e56401906101ec9082610406565b5050508060018360405161020091906104c1565b908152604051908190036020019020555050565b5f60208284031215610224575f5ffd5b5035919050565b828152604060208201525f82518060408401528060208501606085015e5f606082850101526060601f19601f8301168401019150509392505050565b634e487b7160e01b5f52604160045260245ffd5b5f82601f83011261028a575f5ffd5b813567ffffffffffffffff8111156102a4576102a4610267565b604051601f8201601f19908116603f0116810167ffffffffffffffff811182821017156102d3576102d3610267565b6040528181528382016020018510156102ea575f5ffd5b816020850160208301375f918101602001919091529392505050565b5f60208284031215610316575f5ffd5b813567ffffffffffffffff81111561032c575f5ffd5b6103388482850161027b565b949350505050565b5f5f60408385031215610351575f5ffd5b823567ffffffffffffffff811115610367575f5ffd5b6103738582860161027b565b95602094909401359450505050565b600181811c9082168061039657607f821691505b6020821081036103b457634e487b7160e01b5f52602260045260245ffd5b50919050565b601f82111561040157805f5260205f20601f840160051c810160208510156103df5750805b601f840160051c820191505b818110156103fe575f81556001016103eb565b50505b505050565b815167ffffffffffffffff81111561042057610420610267565b6104348161042e8454610382565b846103ba565b6020601f821160018114610466575f831561044f5750848201515b5f19600385901b1c1916600184901b1784556103fe565b5f84815260208120601f198516915b828110156104955787850151825560209485019460019092019101610475565b50848210156104b257868401515f19600387901b60f8161c191681555b50505050600190811b01905550565b5f82518060208501845e5f92019182525091905056fea2646970667358221220b5de6fe4ae2315d0619867bd84930415efb4f1bd7545a7315df36e07f46b750a64736f6c634300081c0033","linkReferences":{}},"methodIdentifiers":{"addPerson(string,uint256)":"6f760f41","giveNameGetFavoriteNumber(string)":"43a5ed3b","listOfPeople(uint256)":"2ebce631"},"id":0}