{"abi":[{"type":"function","name":"addPerson","inputs":[{"name":"_name","type":"string","internalType":"string"},{"name":"_favoriteNumber","type":"uint256","internalType":"uint256"}],"outputs":[],"stateMutability":"nonpayable"},{"type":"function","name":"getPerson","inputs":[{"name":"index","type":"uint256","internalType":"uint256"}],"outputs":[{"name":"","type":"uint256","internalType":"uint256"},{"name":"","type":"string","internalType":"string"}],"stateMutability":"view"},{"type":"function","name":"giveNameGetFavoriteNumber","inputs":[{"name":"","type":"string","internalType":"string"}],"outputs":[{"name":"","type":"uint256","internalType":"uint256"}],"stateMutability":"view"},{"type":"function","name":"listOfPeople","inputs":[{"name":"","type":"uint256","internalType":"uint256"}],"outputs":[{"name":"favoriteNumber","type":"uint256","internalType":"uint256"},{"name":"name","type":"string","internalType":"string"}],"stateMutability":"view"}],"bytecode":{"object":"0x6080604052348015600e575f5ffd5b5061061a8061001c5f395ff3fe608060405234801561000f575f5ffd5b506004361061004a575f3560e01c8063246982c41461004e5780632ebce6311461007857806343a5ed3b1461008b5780636f760f41146100c4575b5f5ffd5b61006161005c36600461030d565b6100d9565b60405161006f929190610324565b60405180910390f35b61006161008636600461030d565b6101b4565b6100b66100993660046103ff565b805160208183018101805160018252928201919093012091525481565b60405190815260200161006f565b6100d76100d2366004610439565b610267565b005b5f60605f5f84815481106100ef576100ef61047b565b905f5260205f2090600202016040518060400160405290815f820154815260200160018201805461011f9061048f565b80601f016020809104026020016040519081016040528092919081815260200182805461014b9061048f565b80156101965780601f1061016d57610100808354040283529160200191610196565b820191905f5260205f20905b81548152906001019060200180831161017957829003601f168201915b5050505050815250509050805f015181602001519250925050915091565b5f81815481106101c2575f80fd5b5f91825260209091206002909102018054600182018054919350906101e69061048f565b80601f01602080910402602001604051908101604052809291908181526020018280546102129061048f565b801561025d5780601f106102345761010080835404028352916020019161025d565b820191905f5260205f20905b81548152906001019060200180831161024057829003601f168201915b5050505050905082565b60408051808201909152818152602081018381525f8054600181018255908052825160029091027f290decd9548b62a8d60345a988386fc84ba6bc95484008f6362f93160ef3e5638101918255915190917f290decd9548b62a8d60345a988386fc84ba6bc95484008f6362f93160ef3e56401906102e59082610513565b505050806001836040516102f991906105ce565b908152604051908190036020019020555050565b5f6020828403121561031d575f5ffd5b5035919050565b828152604060208201525f82518060408401528060208501606085015e5f606082850101526060601f19601f8301168401019150509392505050565b634e487b7160e01b5f52604160045260245ffd5b5f82601f830112610383575f5ffd5b813567ffffffffffffffff81111561039d5761039d610360565b604051601f8201601f19908116603f0116810167ffffffffffffffff811182821017156103cc576103cc610360565b6040528181528382016020018510156103e3575f5ffd5b816020850160208301375f918101602001919091529392505050565b5f6020828403121561040f575f5ffd5b813567ffffffffffffffff811115610425575f5ffd5b61043184828501610374565b949350505050565b5f5f6040838503121561044a575f5ffd5b823567ffffffffffffffff811115610460575f5ffd5b61046c85828601610374565b95602094909401359450505050565b634e487b7160e01b5f52603260045260245ffd5b600181811c908216806104a357607f821691505b6020821081036104c157634e487b7160e01b5f52602260045260245ffd5b50919050565b601f82111561050e57805f5260205f20601f840160051c810160208510156104ec5750805b601f840160051c820191505b8181101561050b575f81556001016104f8565b50505b505050565b815167ffffffffffffffff81111561052d5761052d610360565b6105418161053b845461048f565b846104c7565b6020601f821160018114610573575f831561055c5750848201515b5f19600385901b1c1916600184901b17845561050b565b5f84815260208120601f198516915b828110156105a25787850151825560209485019460019092019101610582565b50848210156105bf57868401515f19600387901b60f8161c191681555b50505050600190811b01905550565b5f82518060208501845e5f92019182525091905056fea264697066735822122021b838bcffd8e7c3c0ecf578cf7695db79d5284c5b8b36ddf97f72551bc28d0d64736f6c634300081c0033","linkReferences":{}},"methodIdentifiers":{"addPerson(string,uint256)":"6f760f41","getPerson(uint256)":"246982c4","giveNameGetFavoriteNumber(string)":"43a5ed3b","listOfPeople(uint256)":"2ebce631"},"id":0}